:020000040800F2
:1000000000300020F5370008453800084538000862
:100010004538000845380008453800080000000051
:10002000000000000000000000000000453800084B
:10003000453800080000000045380008D5360008A3
:10004000453800084538000845380008453800089C
:10005000453800084538000845380008E3360008F0
:100060004538000845380008E936000845380008DA
:10007000453800084538000845380008453800086C
:10008000F1360008FD3600084538000845380008FC
:100090004538000845380008453800080937000889
:1000A000453800084538000845380008453800083C
:1000B00011370008453800080000000045380008E6
:1000C0004538000800000000000000004538000826
:1000D00000000000453800081D37000845380008BA
:1000E0004538000845380008000000000000000006
:1000F0000000000000000000000000000000000000
:1001000000000000000000000000000000000000EF
:1001100000000000000000004538000829370008F2
:1001200000000000000000000000000000000000CF
:1001300000000000000000000000000000000000BF
:1001400045380008453800080000000000000000A5
:10015000000000000000000000000000000000009F
:10016000000000000000000000000000000000008F
:10017000000000000000000000000000000000007F
:080180000000000045380008F2
:1001880010B5054C237833B9044B13B10448AFF3C9
:1001980000800123237010BD080400200000000027
:1001A800EC38000808B5034B1BB103490348AFF30B
:1001B800008008BD000000000C040020EC38000896
:1001C80081F0004102E000BF83F0004330B54FEA00
:1001D80041044FEA430594EA050F08BF90EA020F6D
:1001E8001FBF54EA000C55EA020C7FEA645C7FEA00
:1001F800655C00F0E2804FEA5454D4EB5555B8BF23
:100208006D420CDD2C4480EA020281EA030382EA93
:10021800000083EA010180EA020281EA0303362D25
:1002280088BF30BD11F0004F4FEA01314FF4801CF8
:100238004CEA113102D0404261EB410113F0004F0A
:100248004FEA03334CEA133302D0524263EB4303C1
:1002580094EA050F00F0A780A4F10104D5F1200E5F
:100268000DDB02FA0EFC22FA05F2801841F10001BA
:1002780003FA0EF2801843FA05F359410EE0A5F18E
:1002880020050EF1200E012A03FA0EFC28BF4CF0BF
:10029800020C43FA05F3C01851EBE37101F0004575
:1002A80007D54FF0000EDCF1000C7EEB00006EEB82
:1002B8000101B1F5801F1BD3B1F5001F0CD349080C
:1002C8005FEA30004FEA3C0C04F101044FEA445263
:1002D80012F5800F80F09A80BCF1004F08BF5FEAEA
:1002E800500C50F1000041EB045141EA050130BDCA
:1002F8005FEA4C0C404141EB010111F4801FA4F16D
:100308000104E9D191F0000F04BF01460020B1FAC1
:1003180081F308BF2033A3F10B03B3F120020CDAF9
:100328000C3208DD02F1140CC2F10C0201FA0CF0D7
:1003380021FA02F10CE002F11402D8BFC2F1200C3C
:1003480001FA02F120FA0CFCDCBF41EA0C019040F2
:10035800E41AA2BF01EB0451294330BD6FEA04043B
:100368001F3C1CDA0C340EDC04F11404C4F1200226
:1003780020FA04F001FA02F340EA030021FA04F338
:1003880045EA030130BDC4F10C04C4F1200220FA8F
:1003980002F001FA04F340EA0300294630BD21FACD
:1003A80004F0294630BD94F0000F83F4801306BF93
:1003B80081F480110134013D4EE77FEA645C18BF87
:1003C8007FEA655C29D094EA050F08BF90EA020F1E
:1003D80005D054EA000C04BF1946104630BD91EA16
:1003E800030F1EBF0021002030BD5FEA545C05D119
:1003F8004000494128BF41F0004130BD14F5800458
:100408003CBF01F5801130BD01F0004545F0FE41CB
:1004180041F470014FF0000030BD7FEA645C1ABF00
:10042800194610467FEA655C1CBF0B46024650EA37
:10043800013406BF52EA033591EA030F41F4002163
:1004480030BD00BF90F0000F04BF0021704730B5E9
:100458004FF4806404F132044FF000054FF00001BE
:1004680050E700BF90F0000F04BF0021704730B57F
:100478004FF4806404F1320410F0004548BF404254
:100488004FF000013EE700BF42004FEAE2014FEAA9
:1004980031014FEA02701FBF12F07F4393F07F4F84
:1004A80081F06051704792F0000F14BF93F07F4FB6
:1004B800704730B54FF4607401F0004521F00041F9
:1004C80020E700BF50EA010208BF704730B54FF07F
:1004D80000050AE050EA010208BF704730B511F084
:1004E800004502D5404261EB41014FF4806404F1BC
:1004F80032045FEA915C3FF4DCAE4FF003025FEA3E
:10050800DC0C18BF03325FEADC0C18BF033202EBC5
:10051800DC02C2F1200300FA03FC20FA02F001FA1F
:1005280003FE40EA0E0021FA02F11444C1E600BFBE
:1005380070B54FF0FF0C4CF4E06C1CEA11541DBF71
:100548001CEA135594EA0C0F95EA0C0F00F0DEF83C
:100558002C4481EA030621EA4C5123EA4C5350EA21
:10056800013518BF52EA033541F4801143F4801372
:1005780038D0A0FB02CE4FF00005E1FB02E506F003
:100588000042E0FB03E54FF00006E1FB03569CF058
:10059800000F18BF4EF0010EA4F1FF04B6F5007F5E
:1005A80064F5407404D25FEA4E0E6D4146EB0606D0
:1005B80042EAC62141EA55514FEAC52040EA5E5059
:1005C8004FEACE2EB4F1FD0C88BFBCF5E06F1ED803
:1005D800BEF1004F08BF5FEA500E50F1000041EB3A
:1005E800045170BD06F0004646EA010140EA0200E7
:1005F80081EA0301B4EB5C04C2BFD4EB0C0541EA09
:10060800045170BD41F480114FF0000E013C00F31D
:10061800AB8014F1360FDEBF002001F0004170BD41
:10062800C4F10004203C35DA0C341BDC04F114045A
:10063800C4F1200500FA05F320FA04F001FA05F2E6
:1006480040EA020001F0004221F0004110EBD370B3
:1006580021FA04F642EB06015EEA430E08BF20EADF
:10066800D37070BDC4F10C04C4F1200500FA04F382
:1006780020FA05F001FA04F240EA020001F0004114
:1006880010EBD37041F100015EEA430E08BF20EA87
:10069800D37070BDC4F1200500FA05F24EEA020ECF
:1006A80020FA04F301FA05F243EA020321FA04F0FE
:1006B80001F0004121FA04F220EA020000EBD370B5
:1006C8005EEA430E08BF20EAD37070BD94F0000FB5
:1006D8000FD101F00046400041EB010111F4801FE9
:1006E80008BF013CF7D041EA060195F0000F18BF9A
:1006F800704703F00046520043EB030313F4801FD6
:1007080008BF013DF7D043EA0603704794EA0C0F8F
:100718000CEA135518BF95EA0C0F0CD050EA4106A5
:1007280018BF52EA4306D1D181EA030101F0004122
:100738004FF0000070BD50EA410606BF104619464A
:1007480052EA430619D094EA0C0F02D150EA013656
:1007580013D195EA0C0F05D152EA03361CBF104697
:1007680019460AD181EA030101F0004141F0FE4136
:1007780041F470014FF0000070BD41F0FE4141F4BA
:10078800780170BD70B54FF0FF0C4CF4E06C1CEABA
:1007980011541DBF1CEA135594EA0C0F95EA0C0F6F
:1007A80000F0A7F8A4EB050481EA030E52EA03352A
:1007B8004FEA013100F088804FEA03334FF080554B
:1007C80045EA131343EA12634FEA022245EA111578
:1007D80045EA10654FEA00260EF000419D4208BF29
:1007E800964244F1FD0404F5407402D25B084FEAD6
:1007F8003202B61A65EB03055B084FEA32024FF482
:1008080080104FF4002CB6EB020E75EB030E22BFDE
:10081800B61A754640EA0C005B084FEA3202B6EB9E
:10082800020E75EB030E22BFB61A754640EA5C004D
:100838005B084FEA3202B6EB020E75EB030E22BFDD
:10084800B61A754640EA9C005B084FEA3202B6EBDE
:10085800020E75EB030E22BFB61A754640EADC009D
:1008680055EA060E18D04FEA051545EA16754FEAFF
:1008780006164FEAC30343EA52734FEAC2025FEA1D
:100888001C1CC0D111F4801F0BD141EA00014FF0AC
:1008980000004FF0004CB6E711F4801F04BF01437D
:1008A8000020B4F1FD0C88BFBCF5E06F3FF6AFAE99
:1008B800B5EB030C04BFB6EB020C5FEA500C50F129
:1008C800000041EB045170BD0EF0004E4EEA1131AC
:1008D80014EB5C04C2BFD4EB0C0541EA045170BDB3
:1008E80041F480114FF0000E013C90E645EA060EF7
:1008F8008DE60CEA135594EA0C0F08BF95EA0C0F25
:100908003FF43BAF94EA0C0F0AD150EA01347FF46C
:1009180034AF95EA0C0F7FF425AF104619462CE743
:1009280095EA0C0F06D152EA03353FF4FDAE1046A6
:10093800194622E750EA410618BF52EA43067FF4F7
:10094800C5AE50EA41047FF40DAF52EA43057FF487
:10095800EBAE12E74FEA4102B2F1E04324BFB3F530
:10096800001CDCF1FE5C0DD901F0004C4FEAC0021E
:100978004CEA5070B2F1004F40EB830008BF20F002
:100988000100704711F0804F21D113F13872BCBFBC
:1009980001F00040704741F480114FEA5252C2F111
:1009A8001802C2F1200C10FA0CF320FA02F018BF5A
:1009B80040F001004FEAC1234FEAD32303FA0CFCAD
:1009C80040EA0C0023FA02F34FEA4303CCE77FEA3C
:1009D800625307D150EA01331EBF4FF0FE4040F486
:1009E8004000704701F0004040F0FE4040F4000035
:1009F800704700BF38B50E4A0E4B054618784FF4BD
:100A08007A73B3FBF0F31068B0FBF3F000F03CFB33
:100A1800044658B90F2D09D8024629464FF0FF3031
:100A280000F0F2FA044B20461D6038BD012038BDA5
:100A3800040400200000002004000020074A08B534
:100A4800136843F010031360032000F0CBFA002072
:100A5800FFF7D0FF02F0E4FC002008BD00200240B0
:100A6800034A044B11681B780B441360704700BF9E
:100A78002404002000000020014B1868704700BFC4
:100A88002404002038B503680446986800F0030081
:100A9800012801D0002038BD1A68D207FAD59A6813
:100AA80002F00D02012A1BD19A6842F002029A60F4
:100AB80003221A60FFF7E0FF054623689B68DB07FF
:100AC800E8D5FFF7D9FF401B0228F6D9636C43F03D
:100AD80010036364A36C43F00103A364012038BDD1
:100AE800636C43F010036364A36C43F00103A364D5
:100AF80038BD000070B596B0002300930446002866
:100B080000F0E380426CD50600F1CC80436C002BEA
:100B180000F09280002023689A68D20002D59B6872
:100B28009B000AD5636C23F0120343F0100363643F
:100B3800A36C43F00103A3640120636CDE0600F19B
:100B4800BE80002840F0BB802368996811F004013A
:100B580040F0B580626C22F4817242F00202B3F177
:100B6800A04F62640CBF5A4A4FF0A04201929A68A3
:100B780002F00302012A02D11A68D50710D4019A9B
:100B88003AB1956805F00305012D02D11268D20724
:100B980006D4504D6668AA6822F440323243AA60EF
:100BA800A26BA668E569012AE26842EA060218BF54
:100BB8004FF4805142EA45320A43616A012907D15C
:100BC800002D71D1A16A013942EA414242F48032D2
:100BD800E16A01291EBF256B29430A43996811F070
:100BE8000C0F0BD1D968A56921F4804121F00201CD
:100BF800D960616B490041EA85310A43DD683649AD
:100C080029400A43DA602269012A05BF196B226A62
:100C18001A6B02F1FF3206BF21F00F010A4322F0DE
:100C28000F021A630023A364636C23F0030343F0E9
:100C38000103636416B070BD83640365C36480F800
:100C4800403002F033FC23689B68D8003FF562AF60
:100C58002046FFF717FF626CD1063FF55CAF00280E
:100C68007FF459AF636C23F4885323F0020343F0F5
:100C78000203636423689A6822F040529A609A6873
:100C880042F080529A60154B154A1B68B3FBF2F28A
:100C98000A2353430093009B002B3FF43BAF009B78
:100CA800013BF7E7184648E7616C21F0220141F063
:100CB80020016164A16C41F00101A16488E7636CC3
:100CC80023F0120343F0100363640120B2E700BF6E
:100CD800000100500003005007C0F0FF040400208A
:100CE80040420F00F0B597B00023009390F84030D1
:100CF800012B054600F051812B68CE689A680120C7
:100D0800540785F8400000F1438148680C680428BE
:100D18004FF0060231D842431F6B1F20904027EA4C
:100D2800000004FA02F202431A639A6812F00C0FE8
:100D380062D1092C4FEA44028F6846D92244986947
:100D48001E3A4FF0070E0EFA02FE20EA0E0007FACE
:100D580002F202439A61DA68C2F3C10E4A694FEAA5
:100D68004E0E02FA0EFE0A69013A4FEA846C032A13
:100D780073D8DFE802F037515C6709280BD8424383
:100D88005F6B1E3A1F20904027EA000004FA02F227
:100D980002435A63C9E70E280BD842439F6B3C3A7B
:100DA8001F20904027EA000004FA02F202439A63E7
:100DB800BBE74243DF6B5A3A1F20904027EA000006
:100DC80004FA02F20243DA63AFE7586922444FF0AB
:100DD800070E0EFA02FE20EA0E0007FA02F202439C
:100DE8005A61B8E71A6E7A4F174047EA0C0242F088
:100DF800004242EA0E021A669A6802F00302012AC9
:100E080040F0CD801A68D00740F1C9800020002347
:100E180085F8403017B0F0BD5A6E6D4F174047EA5D
:100E28000C0242F0004242EA0E025A66E4E79A6E69
:100E38006748104040EA0C0242F0004242EA0E02C3
:100E48009A66D9E7D86E624A024042EA0C0242F03A
:100E5800004242EA0E02DA66CEE71A6E02F0F84263
:100E6800624502BF1A6E22F000421A665A6E02F0FC
:100E7800F842944502BF5A6E22F000425A669A6EB2
:100E880002F0F842944502BF9A6E22F000429A6638
:100E9800DA6E02F0F8429445AED1DA6E22F00042E2
:100EA800D9E7D3F8B0200121A14022EA0102C3F812
:100EB800B020102C43D1474A926812F4000FA5D1F4
:100EC800B3F1A04F0CBF444A4FF0A04201929A6878
:100ED80002F00302012A02D11A68D10752D4019AFA
:100EE8003AB1916801F00301012902D11268D207D1
:100EF80048D4102C32D1B3F1A04F87D1354A93682A
:100F080043F400039360354B354A1B68B3FBF2F298
:100F18000A2353430093009B002B3FF477AF009BB9
:100F2800013BF7E7601C596900EB4000072282404B
:100F380021EA020106FA00F20A435A61B9E7112CC4
:100F480004D1244A926812F0807FB8E7122C7FF40B
:100F58005DAF204A926812F4800FB0E7112C09D1D6
:100F6800B3F1A04F7FF452AF1A4A936843F08073ED
:100F780093604BE7122C7FF449AF164A936843F409
:100F88008003F5E76B6C43F020036B6401203EE7B8
:100F98006B6C43F020036B6439E702203AE7012EBB
:100FA8007FF47FAFD3F8B020A6401643092CC3F8CE
:100FB800B0608E68B6D904EB440299691B3A0720E1
:100FC800904021EA000106FA02F20A439A6170E7AA
:100FD80000F0FF83000300500001005004040020CB
:100FE80040420F00074AD36823F4E0631B041B0C3C
:100FF80043F0BF63000243F4003300F4E0600343AE
:10100800D360704700ED00E0174B30B5DC68C4F3DF
:101018000224C4F10703251D042B28BF0423062D31
:101028004FF0010505FA03F303F1FF338CBF033CCE
:1010380000241940A14005FA04F4013C224000288C
:1010480042EA01024FEA0212AFBF00F1604000F02D
:101058000F00064BD2B2A5BF00F56140D2B21A54B8
:1010680080F8002330BD00BF00ED00E014ED00E083
:101078004209012300F01F0003FA00F0014B43F876
:101088002200704700E100E00138B0F1807F0AD209
:10109800064B074A5860F02182F8231000200722E7
:1010A80098601A6070470120704700BF10E000E0A8
:1010B80000ED00E0044B1A6804280CBF42F004025B
:1010C80022F004021A60704710E000E0704708B58B
:1010D800FFF7FCFF08BD000010B550B384684368F3
:1010E80001682343C4680A682343046923434469A5
:1010F800234384692343C46922F47F5222F03002D7
:10110800234313430B600C4B14220B44B3FBF2F341
:101118009B000364094BC363012200238362C362FB
:1011280003634363836380F8212080F820301846E6
:1011380010BD012010BD00BFF8FFFDBF0000024038
:1011480090F82120022A10B503D0042282630120DE
:1011580010BD0268C46B1168436B21F00E01116069
:10116800116821F001011160026C012101FA02F2FB
:101178006260002480F8211080F8204013B198475D
:10118800204610BD184610BDC16B026C036870B4D0
:101198000E681D680424944026420ED015F0040FF2
:1011A8000BD01A6892065EBF1A6822F004021A6011
:1011B800C36A4C6073B370BC18470224944026423B
:1011C80012D015F0020F0FD01A68950606D41A68C7
:1011D80022F00A021A60012380F8213000234C60B3
:1011E80080F82030836AE5E708249440344211D01F
:1011F8002C070FD51C6824F00E041C60012303FA89
:1012080002F24A60836380F82130002380F820309E
:10121800036BCFE770BC70472DE9F04F85B00B68C2
:10122800DFF86481564A01934FF00F090023019CAF
:10123800DC4002D105B0BDE8F08F012404FA03FABE
:10124800019C14EA0A0500F093804C6824F0100B06
:10125800BBF1020F11D1DF0800EB870703F0070E7F
:101268003E6A4FEA8E0E09FA0EFC26EA0C0C0E694D
:1012780006FA0EF646EA0C063E624FEA430C0327CE
:10128800066807FA0CF7FF4304F0030E3E400EFA17
:101298000CFE0BF1FF3B4EEA0606BBF1010F0660A0
:1012A80011D8866806EA070BCE6806FA0CFE4EEAE5
:1012B8000B068660466826EA0A0AC4F300169E40B2
:1012C80046EA0A064660C66837408E6806FA0CF693
:1012D8003743E600C7604BD5D8F8186046F00106DA
:1012E800C8F81860D8F8186023F0030707F180479A
:1012F80006F0010607F58037039603F0030E039EF8
:10130800BE684FEA8E0E09FA0EFCB0F1904F26EA3D
:101318000C0C2FD01B4EB0422ED006F58066B04282
:101328002CD006F58066B04214BF0526032606FABF
:101338000EF646EA0C06BE601668EF4314F4803FCA
:101348000CBF3E402E431660566814F4003F0CBF95
:101358003E402E435660966814F4801F0CBF3E40F2
:101368002E439660D668A40254BF3E402E43D660F2
:1013780001335CE70026DAE70126D8E70226D6E73C
:101388000004014000040048001002400AB18161D5
:10139800704781627047000008B5044B59690142E3
:1013A80002D0586102F0CEF908BD00BF0004014028
:1013B8002DE9F74F0446002866D090F83230052B07
:1013C80062D090F83230022B5ED0314B9A6942F0ED
:1013D80001029A619B6903F001030193019B90F854
:1013E800323003F0FF020BB980F83120204602F0BA
:1013F80073F863682168D4F810A0D4F81890A76A25
:10140800E66A244D23F02002402A04F11C08E26811
:1014180098E800511ED1134343EA0A0343EA09033B
:1014280043EA080343EA0C03086843EA0E0343EA65
:10143800C74343EA066300EA05061E430E6094F8B4
:10144800323003F0FF000BBB012384F8323003B0C5
:10145800BDE8F08FA068D1F800B003431A43636970
:1014680042EA0A021A4342EA090242EA080242EA46
:101478000C0343EA0E0343EAC74343EA06630BEA55
:10148800050003430B60DAE70120E0E70020DEE710
:1014980000100240113800E00368DA072DE9F3472D
:1014A800054611D42B689B0700F188802B681C0720
:1014B80000F1F8802B68580700F14181EA69002A99
:1014C80040F0D781002021E0BA4C636803F00C0398
:1014D800042B07D0636803F00C03082B19D1636849
:1014E800DF0316D54FF4003393FAA3F2216893FA79
:1014F800A3F3B3FA83F303F01F03012202FA03F301
:101508000B42CFD06B68002BCCD1012002B0BDE8D4
:10151800F0876A68B2F5803F25D1236843F48033A9
:101528002360E36AA96823F00F030B43E36252B315
:10153800FFF7A2FA4FF400368046012796FAA6F381
:10154800226896FAA6F3B3FA83F303F01F0307FAA7
:1015580003F31342A6D1FFF78FFAA0EB0800642823
:10156800ECD90320D2E7236832B923F4803323600F
:10157800236823F48023D3E7B2F5A02FF5D143F4F1
:1015880080232360C9E7FFF777FA4FF400368046D7
:10159800012796FAA6F3226896FAA6F3B3FA83F31C
:1015A80003F01F0307FA03F313423FF47BAFFFF77F
:1015B80063FAA0EB08006428EBD9D2E77D4C636896
:1015C80013F00C0F07D0636803F00C03082B21D12C
:1015D8006368DE031ED4022393FAA3F2216893FA08
:1015E800A3F3B3FA83F303F01F03012202FA03F310
:1015F8000B4202D02B69934287D12168F82393FAD2
:10160800A3F3B3FA83F26B69934021F0F802134312
:1016180023604BE72A6901260AB396FAA6F3B3FAC0
:1016280083F303F1845303F584139B0002271E60A0
:10163800FFF722FA804697FAA7F3226897FAA7F3EA
:10164800B3FA83F303F01F0306FA03F31342D4D16A
:10165800FFF712FAA0EB08000228ECD981E796FA06
:10166800A6F3B3FA83F303F1845303F584139B00C1
:1016780002271A60FFF700FA804697FAA7F3226854
:1016880097FAA7F3B3FA83F303F01F0306FA03F3F9
:1016980013423FF40BAFFFF7EFF9A0EB0800022865
:1016A800EBD95EE7AA69434E434901241AB394FA79
:1016B800A4F3B3FA83F30B449B0002271C60FFF7E3
:1016C800DBF9804697FAA7F397FAA7F397FAA7F3F7
:1016D800726A97FAA7F3B3FA83F303F01F0304FAC5
:1016E80003F313427FF4E6AEFFF7C6F9A0EB080058
:1016F8000228E7D935E794FAA4F3B3FA83F30B4445
:101708009B0002271A60FFF7B7F9804697FAA7F3FC
:1017180097FAA7F397FAA7F3726A97FAA7F3B3FAB7
:1017280083F303F01F0304FA03F313423FF4C2AE3A
:10173800FFF7A2F9A0EB08000228E7D911E71D4C32
:10174800E369D90034D4E36943F08053E361E36982
:1017580003F080530193019B0126184F3B68DA057B
:101768002ED5EB68012B3CD1236A43F00103236299
:10177800FFF782F902278246B9464FF0010897FA27
:10178800A7F397FAA7F3002B6BD0226A99FAA9F36B
:10179800B3FA83F303F01F0308FA03F3134257D095
:1017A800002E3FF48BAEE36923F08053E36185E6B6
:1017B8000026D2E7001002402081901000700040FF
:1017C8003B6843F480733B60FFF756F980463B68FB
:1017D800DB05C6D4FFF750F9A0EB08006428F6D95A
:1017E800BFE63BBB236A23F001032362236A23F08D
:1017F80004032362FFF740F902278246B9464FF0F7
:10180800010897FAA7F397FAA7F373B3226A99FA2C
:10181800A9F3B3FA83F303F01F0308FA03F313429F
:10182800BED0FFF729F941F28833A0EB0A009842AD
:10183800E7D996E6052B236A03D143F00403236214
:1018480092E723F001032362236A23F004038EE75F
:10185800FFF712F941F28833A0EB0A0098428ED9BB
:101868007FE697FAA7F3626A90E797FAA7F3626AA6
:10187800CDE7414C636803F00C03082B3FF445AEF9
:10188800022A4FF0807352D193FAA3F3B3FA83F389
:1018980003F1845303F584139B0000221A60FFF7B9
:1018A800EBF84FF000778046012697FAA7F32268F5
:1018B80097FAA7F3B3FA83F303F01F0306FA03F3C7
:1018C80013422DD162686B6A296A22F474120B43A1
:1018D800134363604FF0807393FAA3F3B3FA83F36F
:1018E80003F1845303F584139B004FF000751E60C9
:1018F800FFF7C2F80126074695FAA5F3226895FA7C
:10190800A5F3B3FA83F303F01F0306FA03F31342B4
:101918007FF4D8ADFFF7B0F8C01B0228ECD920E659
:10192800FFF7AAF8A0EB08000228BED919E693FA37
:10193800A3F3B3FA83F303F1845303F584139B00F1
:1019480000221A60FFF798F84FF000750746012645
:1019580095FAA5F3226895FAA5F3B3FA83F303F091
:101968001F0306FA03F313423FF4ACADFFF784F804
:10197800C01B0228ECD9F4E50010024010B5134C46
:10198800616801F00C03082B1ED14FF4701393FA11
:10199800A3F301F47012B3FA83F322FA03F30C4AA7
:1019A800D05CE36A0F2292FAA2F2B2FA82F203F052
:1019B8000F03D340074AD25CCB034ABF064B074B01
:1019C800B3FBF2F3584310BD034810BD00100240AA
:1019D800043900081439000800127A0000093D0093
:1019E8005C4A136803F007038B422DE9F041064671
:1019F8000D4630D3326891073AD4D20740D4554ABD
:101A0800136803F007039D42C0F092803268524C7D
:101A180012F0040F40F09780130706D56368326907
:101A280023F4605343EAC2036360FFF7A7FF6368C8
:101A3800F02292FAA2F2B2FA82F203F0F003D34053
:101A4800464AD35CD840464B18600020FEF7D2FFC8
:101A58000020BDE8F081136823F007030B431360EF
:101A6800136803F007039942C4D00120BDE8F08150
:101A78003949B0684B6823F0F00303434B60BCE777
:101A88007268354C012A28D14FF4003393FAA3F138
:101A9800216893FAA3F3B3FA83F303F01F0302FA5E
:101AA80003F30B42E1D0636823F003031A43626037
:101AB800FEF7E2FF7368012B074641F288381FD111
:101AC800636803F00C03042B99D0FEF7D5FFC01B05
:101AD8004045F5D90320BDE8F081022A0CBF4FF03C
:101AE8000073022393FAA3F1206893FAA3F3B3FADD
:101AF80083F303F01F03012101FA03F30342D1E743
:101B0800022B10D1636803F00C03082B3FF477AF66
:101B1800FEF7B2FFC01B4045F4D9DBE7FEF7ACFF88
:101B2800C01B4045D6D8636813F00C0FF6D166E7A2
:101B3800136823F007032B431360136803F00703AC
:101B48009D4292D162E76368F16823F4E0630B4336
:101B5800636061E70020024000100240433900083A
:101B680004040020014B1868704700BF04040020DB
:101B7800084B4FF4E0625B6892FAA2F2B2FA82F282
:101B880003F4E063D340044AD35C044A1068D840A5
:101B9800704700BF001002405339000804040020B9
:101BA800084B4FF460525B6892FAA2F2B2FA82F2E2
:101BB80003F46053D340044AD35C044A1068D84005
:101BC800704700BF00100240533900080404002089
:101BD80003682DE9F3470546D80320D5504CE3693F
:101BE800D90044D4E36943F08053E361E36903F027
:101BF80080530193019B01264A4F3B68DA0538D58B
:101C0800236A13F4407348D1236A6A6823F4407343
:101C1800134323621EB1E36923F08053E36128680C
:101C2800C10706D53E4AA968136B23F003030B438B
:101C38001363820606D53A4AE968136B23F010034A
:101C48000B431363030606D5354A2969D36A23F47F
:101C5800F8730B43D36210F480501BD0304A696983
:101C6800136B23F480730B431363002012E00026E8
:101C7800C2E73B6843F480733B60FEF7FDFE804695
:101C88003B68DB05BCD4FEF7F7FEA0EB0800642830
:101C9800F6D9032002B0BDE8F0876A6802F4407202
:101CA8009342B1D0216A4FF4803321F4407093FA03
:101CB800A3F2DFF874E0B2FA82F2724492000127CC
:101CC800176093FAA3F3B3FA83F373449B000022DB
:101CD8001A602062C80797D5FEF7CEFE4FF00208BB
:101CE8008246C14698FAA8F398FAA8F39BB1226AEB
:101CF80099FAA9F3B3FA83F303F01F0307FA03F37E
:101D0800134281D1FEF7B8FE41F28833A0EB0A00F6
:101D18009842E7D9BDE798FAA8F3626AE8E700BFF6
:101D28000010024000700040008190100368DA68DB
:101D380042F00102DA601A6842F001021A600020DB
:101D480070470368DA6822F00102DA60196A41F222
:101D58001112114208D1196A40F24442114202BFDD
:101D68001A6822F001021A60002070477047036861
:101D780089B1042907D01A6A22F001021A621A6A84
:101D880042F001021A621A6A22F010021A621A6AF2
:101D980042F0100206E01A6A22F001021A621A6A78
:101DA80042F001021A621A6842F001021A60002029
:101DB8007047704770477047704703681A69910702
:101DC80010B504460FD5DA6892070CD56FF00202F9
:101DD8001A619B6901229907027700F08580FFF755
:101DE800E9FF0023237723681A69520710D5DA68B8
:101DF80050070DD56FF004021A619B69022213F493
:101E0800407F2277204675D0FFF7D4FF0023237741
:101E180023681A6911070FD5DA6812070CD56FF015
:101E280008021A61DB6904229B072277204667D0E3
:101E3800FFF7C0FF0023237723681A69D00610D55F
:101E4800DA68D1060DD56FF010021A61DB69082235
:101E580013F4407F2277204658D0FFF7ABFF0023CA
:101E6800237723681A69D20708D5DA68D00705D519
:101E78006FF001021A61204601F058FC23681A69C4
:101E8800110608D5DA68120605D56FF080021A61C6
:101E9800204600F00EFC23681A69D00508D5DA68D8
:101EA800110605D56FF480721A61204600F002FC15
:101EB80023681A69520608D5DA68500605D56FF006
:101EC80040021A612046FFF777FF23681A699106D6
:101ED80022D5DA6892061FD56FF0200220461A61D3
:101EE800BDE8104000F0E4BBFFF763FF2046FFF7B2
:101EF80062FF76E7FFF75DFF2046FFF75CFF85E7A7
:101F0800FFF757FF2046FFF756FF93E7FFF751FF0C
:101F18002046FFF750FFA2E710BD0000214A0368E2
:101F2800904210B505D0B0F1804F02D01E4CA042AF
:101F38000CD14C6823F07003904243EA040310D09C
:101F4800B0F1804F0DD0184A90420AD0174A9042FB
:101F580007D002F58062904203D002F58062904279
:101F680003D1CA6823F4407313434A6923F08003FA
:101F7800134303608B68C3620B688362094B984202
:101F88000BD003F5A053984207D003F5806398421D
:101F980003D003F58063984201D10B6903630123E1
:101FA800436110BD002C0140000400400040014086
:101FB80010B50446A0B190F83D3003F0FF021BB9FC
:101FC80080F83C2001F09EFA022384F83D30206816
:101FD800211DFFF7A3FF012384F83D30002010BD29
:101FE800012010BD10B50446A0B190F83D3003F0B3
:101FF800FF021BB980F83C20FFF7B8FE022384F8E3
:102008003D302068211DFFF789FF012384F83D300A
:10201800002010BD012010BDF8B50C46054600286B
:1020280043D090F83D3003F0FF021BB980F83C2004
:1020380001F096FA2946022351F8040B85F83D3041
:10204800836823F4803323F007038360FFF766FF78
:102058002868236886688269A168076A1E43A3699D
:1020680022F4407222F0030241EA0323134323F4CB
:102078007C422369E1691B0143EA0123E1680B43C0
:10208800216A22F0FC0243EA01331343616927F015
:10209800AA026768866047EA01178361174301232C
:1020A800076285F83D300020F8BD0120F8BD00002A
:1020B800036A23F001030362036A70B54468826906
:1020C8000D6822F4803222F073022A438D6823F0CF
:1020D80002032B43174DA8420BD005F5A055A84283
:1020E80007D005F58065A84203D005F58065A842AC
:1020F8001AD1CD6823F008032B430E4DA84223F0D4
:1021080004030BD005F5A055A84207D005F5806556
:10211800A84203D005F58065A84205D124F440758E
:102128008E694C6934432C43446082614A68426337
:10213800036270BD002C0140036A23F010030362A0
:10214800036A426870B584690D6824F0807424F4C9
:10215800E64444EA05248D6823F0200343EA051386
:10216800104DA8420ED1CD6823F0800343EA051331
:1021780023F040034D698E6922F44062354342EAF8
:10218800850209E0084DA842F4D0084DA842F1D0D4
:1021980005F58065A842EDD042604A688461826393
:1021A800036270BD002C0140004001400044014022
:1021B800036A23F480730362036A426870B5C469D2
:1021C8000D6824F4803424F073042C438D6823F4C0
:1021D800007343EA0523114DA8420ED1CD6823F4BC
:1021E800006343EA052323F480634D698E6922F472
:1021F8004052354342EA051209E0094DA842F4D09D
:10220800084DA842F1D005F58065A842EDD042609E
:102218004A68C461C263036270BD00BF002C0140FC
:102228000040014000440140036A23F480530362E4
:10223800026A30B54468C3690D6823F0807323F4DB
:10224800E64343EA05238D6822F4005242EA053248
:102258000C4DA8420BD005F5A055A84207D005F5AE
:102268008065A84203D005F58065A84204D14D6970
:1022780024F4804444EA85144460C3614B680364D1
:10228800026230BD002C014010B584680A4324F472
:102298007F4442EA03232343836010BD90F83C3017
:1022A800012B70B504464FF002001AD084F83D00A7
:1022B8002068012384F83C308268524B13408360C5
:1022C8000B68402B75D018D8102B00F08F8009D8D8
:1022D800002B00F085800123002084F83D3084F82D
:1022E8003C0070BD202B00F08780302BF3D1836831
:1022F80023F0700343F0370333E0702B33D01BD83F
:10230800502B3FD0602BE6D14D68CE68016A21F092
:10231800100101628269036A22F4704223F0A0036B
:1023280043EA051342EA063282610362836823F0B6
:10233800700343F0670314E0B3F5805F0CD0B3F586
:10234800005FC8D1CB684A688968FFF79DFF22689B
:10235800936843F4804313E0836823F4803323F0C5
:1023680007038360B7E7CB684A688968FFF78CFF83
:102378002268936823F4803323F0770343F07703CC
:102388009360A8E74A68CE68016A056A25F00105E6
:102398000562836921F00A0123F0F00343EA06137A
:1023A8000A4383610262836823F0700343F0570392
:1023B800D7E74A68CE68016A056A25F00105056213
:1023C800836921F00A0123F0F00343EA06130A4364
:1023D80083610262836823F0700343F04703C0E718
:1023E800836823F0700343F00703BAE7836823F098
:1023F800700343F01703B4E7836823F0700343F0D6
:102408002703AEE78800FEFF036A10B501248C405D
:1024180023EA04030362036A8A401A43026210BD76
:10242800036A23F480330362026A30B54468436D5B
:102438000D6823F4803323F070032B438D6822F456
:10244800003242EA05420D4DA8420BD005F5A055D1
:10245800A84207D005F58065A84203D005F5806538
:10246800A84204D14D6924F4803444EA0524446028
:1024780043654B688365026230BD00BF002C014094
:10248800036A23F480130362026A30B54468436D1B
:102498000D6823F0807323F4E04343EA05238D6835
:1024A80022F4001242EA05520C4DA8420BD005F561
:1024B800A055A84207D005F58065A84203D005F5C8
:1024C8008065A84204D14D6924F4802444EA852417
:1024D800446043654B68C365026230BD002C01400F
:1024E80038B590F83C30012B04460D464FF00200F9
:1024F80010D00123082A84F83C3084F83D0043D0EA
:1025080009D8FAB1042A2ED00123002084F83D30DE
:1025180084F83C0038BD102A47D0142A56D00C2A1B
:10252800F2D12068FFF780FE23682969DA6942F44E
:102538000062DA61DA6922F48062DA61DA6942EA11
:10254800012230E02068FFF7B3FD236829699A6902
:1025580042F008029A619A6922F004029A619A6923
:102568000A439A61D0E72068FFF7E6FD23682969E6
:102578009A6942F400629A619A6922F480629A61C7
:102588009A6942EA0122ECE72068FFF711FE236806
:102598002969DA6942F00802DA61DA6922F004028C
:1025A800DA61DA690A43DA61AEE72068FFF738FFD3
:1025B800236809695A6D42F008025A655A6D22F07B
:1025C80004025A655A6D0A435A659DE72068FFF769
:1025D80057FF236809695A6D42F400625A655A6DBB
:1025E80022F480625A655A6D42EA0122ECE7000043
:1025F80090F83C30012B30B518D002680C4D536868
:102608009468AA4202BF4D6823F470032B430D68F7
:10261800896823F070032B4324F08004536021431E
:102628000023916080F83C30184630BD022030BD50
:10263800002C014090F83C30012B10B534D0CB6809
:102648008A681A4C23F4407313434A6823F480635E
:1026580013430A6823F4006313430A6923F480537D
:1026680013434A6923F4005313438A6A23F440430B
:1026780013438A6923F4702343EA02430268A2429F
:102688000CD14C6A23F4700343EA0453CC69096AF9
:1026980023F08073234323F000730B435364002318
:1026A80080F83C30184610BD022010BD002C0140B7
:1026B80070477047704703681A6822F490721A606E
:1026C8009A6822F001029A60202380F86A307047E5
:1026D80070477047704708B5406A0023A0F85A3021
:1026E800A0F85230FFF7F6FF08BD000038B50446E1
:1026F80005682169A368C26928680B4361690B43AF
:102708004949134301400B432B606B68E168206A19
:1027180023F440530B436B60A968A36921F430612B
:1027280003430B43AB60414B9D4212D103F5584321
:102738003F491B6B03F00303B2F5004FCB5C3BD161
:10274800082B36D8DFE803F00F2124352D35353531
:102758003000384B9D4203D003F580639D425ED123
:10276800B2F5004F31D1FFF703FA61684A0802EB6E
:102778004003B3FBF1F39BB2002023F00F02216862
:10278800C3F342031343CB6038BDFFF709FAECE704
:102798006068430803F5740303F51053B3FBF0F3C3
:1027A800E9E7FFF7EBF8E0E76068430803F58033F3
:1027B800F4E701200023E0E7082B33D8DFE803F033
:1027C80005101B32273232322A00FFF7D1F963682D
:1027D80000EB5300B0FBF3F080B2E860002038BD96
:1027E800FFF7DEF9636800EB5300B0FBF3F00F4B23
:1027F80080B2D860F2E76268530803F5F40303F582
:102808009053B3FBF2F3094A9BB2D360E6E7FFF7B4
:10281800B5F8E7E76268530803F50043F1E7B2F556
:10282800004FC6D0012038BDF369FFEF00380140E2
:102838002439000800440040436ADA0710B506D579
:102848000168846A4A6822F4003222434A609C077D
:1028580006D50168C46A4A6822F4803222434A6075
:10286800590706D50168046B4A6822F4802222437E
:102878004A601A0706D50168446B4A6822F4004288
:1028880022434A60DC0606D50168846B8A6822F414
:10289800805222438A60990606D50168C46B8A680B
:1028A80022F4005222438A605A060FD50168046C4C
:1028B8004A6822F480122243B4F5801F4A6005D189
:1028C8004A68446C22F4C00222434A601B0606D5BB
:1028D8000268816C536823F400230B43536010BDD6
:1028E8002DE9F041069D04460F4616469846216894
:1028F800CA6937EA02030CBF01220022B24202D0A1
:102908000020BDE8F0816B1CF2D09DB923681A68DD
:1029180022F4D0721A609A6822F001029A60202389
:1029280084F8693084F86A30002384F8683003201A
:10293800BDE8F081FEF7A0F8A0EB08008542D6D2EA
:10294800E4E773B504460026C666FEF795F82368E3
:102958001B681A07054617D423681B685B070AD546
:102968006FF07E43009300222B464FF480012046EF
:10297800FFF7B6FFA0B92023002084F8693084F857
:10298800680084F86A300CE06FF07E4300933246AA
:1029980003464FF400112046FFF7A2FF0028DBD0C2
:1029A800032002B070BD10B5044660B390F86930DA
:1029B80003F0FF021BB980F8682000F021FE2268AE
:1029C800242384F86930136823F001031360204638
:1029D800FFF78CFE012816D0636A13B12046FFF773
:1029E8002BFF23685A6822F490425A609A6822F0B2
:1029F8002A029A601A6842F0010220461A60BDE86D
:102A08001040FFF79EBF012010BD90F86930212BC0
:102A180027D1B0F8523002689BB24BB9116821F047
:102A280080011160116841F0400111600020704779
:102A38008368B3F5805FC36C0ED1016961B933F85F
:102A4800021BC1F308011185C364B0F85230013B81
:102A58009BB2A0F85230E9E7591CC1641B78138572
:102A6800F3E702207047016808B50B6823F04003BC
:102A78000B60202380F86930FFF72AFE002008BD8C
:102A880090F86A30222B10B5036829D1998C836895
:102A9800B0F85C20B3F5805F02EA0102436D1BD1F8
:102AA8000169C9B923F8022B4365B0F85A40013CC3
:102AB800A4B2A0F85A406CB903681A6822F490725C
:102AC8001A609A6822F001029A60202380F86A301E
:102AD800FFF7FFFD002010BD591C41651A70E4E79F
:102AE8009A6942F008029A61022010BD0268D3690F
:102AF800116870B513F00F05044607D19E0605D579
:102B08008E0603D5BDE87040FFF7BABF9068002D68
:102B18005CD010F0010502D111F4907F56D0D8078F
:102B280007D5CE0505D501201062E06E40F0010002
:102B3800E066980706D52DB102201062E06E40F0DD
:102B48000400E0665E0706D52DB104201062E06E31
:102B580040F00200E066180707D58E0600D425B1BC
:102B680008201062E26E0243E266E26E002A50D04C
:102B7800980604D58A0602D52046FFF781FFE36E42
:102B88001B07204604D423689D6815F0400519D01A
:102B9800FFF791FD23689A6856060FD59A68606E0C
:102BA80022F040029A6048B11A4B4363FEF7C8FA14
:102BB80078B3606EBDE87040436B18472046FFF756
:102BC80089FD70BDFFF786FDE56670BDDD020ED597
:102BD80046020CD54FF480131362202384F8693021
:102BE800204684F86A30BDE8704000F015B81D062C
:102BF80006D5080604D52046BDE87040FFF705BF96
:102C08005A0606D54B0604D52046BDE87040FFF7A6
:102C18002ABF70BDDF260008704710B504460022A1
:102C280020214FF09040FEF7B1FB2368A168186897
:102C38000122FFF7E9FB2368A1681A6804238B4087
:102C4800116A21EA03011162116A0B43136201231D
:102C580084F87130002010BDF0B5022387B0054616
:102C680080F871300F461822002168466C4600F043
:102C780031FE0FCC05F158060FC694E8030086E82C
:102C88000300012105F1340000F0DAFD012105F10E
:102C9800100000F0D5FDB5F85E301F440122202158
:102CA8004FF09040A5F85C70FEF770FBE86800F004
:102CB80091F92B680F4A1B68934215D002F5A05270
:102CC800934211D002F5806293420DD002F58062E2
:102CD800934209D01A68686842F001021A6007B086
:102CE800BDE8F040FFF722B85A6C42F400425A643B
:102CF800F0E700BF002C014090F87130012B06D19D
:102D08004FF4FA63594341F3CF01FFF7A5BF012000
:102D1800704710B504464068FFF713F800222021D9
:102D28004FF09040FEF732FB23681B68196A41F2A6
:102D38001112114208D1196A40F24442114202BFED
:102D48001A6822F001021A60012384F87130002009
:102D580010BD00000000000090F87130042B2DE930
:102D6800F041044605D1C36E0133C3660220BDE8B5
:102D7800F08190F87130022B40F0FA80426E042303
:102D880080F87130531C4366002A40D1B0F85C309B
:102D9800B0F85E105B1A1BB23BB9826E0A2A03D9DF
:102DA800BDE8F041FFF7B5BF013207EE903AD4ED28
:102DB800076A94ED046AD4ED065AA266B8EEE77A7B
:102DC800D4ED057A84ED077A66EEA77AE7EE067AFF
:102DD80094ED086AC4ED086AE5EE867A94ED096A0E
:102DE80077EE867AB9EE067AF4EEC77AF1EE10FA43
:102DF800C4ED097A00F1B080B1EE067AF4EE477AB4
:102E0800F1EE10FAC8BFF0EE477AC4ED167AE06822
:102E180000F0D7F80546B4F95E00281AFDF722FB42
:102E28005AA3D3E90023FDF783FBFDF793FDA4F82C
:102E38005E508046206EFDF727FB56A3D3E900239A
:102E4800FDF776FB064640460F46FDF71DFB53A3EC
:102E5800D3E90023FDF76CFB02460B4630463946A2
:102E6800FDF7B4F9FDF776FD94ED106A94ED167A46
:102E7800D4ED0E7AD4ED0D5A94ED0F5A206606EE75
:102E8800900A66EE277A77EE666AE6EEA57AD4EDC2
:102E9800115AC4ED106AE5EE257AD4ED125A84ED84
:102EA800116A77EEA57AFFEE006AF4EEE67AF1EEA3
:102EB80010FAC4ED127A52D4F7EE006AF4EE667A8C
:102EC800F1EE10FAC8BFF0EE667ADFED2B6A9FEDDF
:102ED8002B6A27EE267ADFED2A6AB4EEC67AF1EE7F
:102EE80010FA3FD4B4EE667AF1EE10FAC8BFB0EE2D
:102EF800667ABDEEC77A234A17EE103A7F33DBB203
:102F080002EB830393ED007A77EE877A9FED1E7AC2
:102F180067EEA67AF4EEC77AF1EE10FA25D4F4EE4D
:102F2800667A9FED177AF1EE10FAC8BFF0EE477A8D
:102F3800636E092B84BF00236366FDEEE77A23687E
:102F48001A6817EE903A803BDBB2D363022384F809
:102F580071300020BDE8F081F0EE477A55E7F0EED9
:102F6800667AB2E7B0EE467AC3E7F0EE477ADFE773
:102F78000120BDE8F08100BF6666BA410000FEC2CC
:102F88000000FE4208000020000000C36F1283C04A
:102F9800CA210940AE47E17A14AEEF3F7B14AE4731
:102FA800E17A843F037A10B504460BB1012010BDC5
:102FB8003C210068FEF7DBFE0028F7D101232372CD
:102FC80010BD037A012B03BF03681B68586A0120F0
:102FD80000B27047037A012B01BF03681B68002009
:102FE800586218BF0120704708B5037A012B0246C2
:102FF80014D1FFF7E6FFFA2390FBF3F101FB13006E
:10300800D38880B29842908006D012681268516ABC
:10301800181A01FA80F05062002008BD012008BD8E
:1030280010B596B0012310931023119300230224A6
:1030380014930CA84FF460130C9413941593FEF793
:103048002BFA00B1FEE70F23019303904FF480633E
:103058000590214601A802940493FEF7C1FC00B133
:10306800FEE74FF4845306930B904FF4907306A831
:103078000A93FEF7ADFD044600B1FEE7FEF772FDC8
:103088004FF47A73B0FBF3F0FDF7FEFF0420FEF770
:1030980011F8224621464FF0FF30FDF7B5FF16B074
:1030A80010BD000080B5A44DDFF8BC829EB0FDF7CE
:1030B800C5FCFFF7B5FF6B6943F480036B616B696F
:1030C80003F480030293029B6B6943F400336B6142
:1030D8006B6903F400330393039B6B6943F4802308
:1030E8006B616B6903F480230493002220214FF065
:1030F8009040049BFEF74AF9002230218F48FEF7E2
:1031080045F90126102713A94FF090400024139782
:10311800CDF850801596FEF77FF8202313A94FF0BD
:1031280090401393149615941694FEF775F8C123DE
:1031380013A982481393149415944FF0020AFEF7CA
:103148006BF813A97D48CDF84CA0CDF850801596A2
:10315800FEF762F84FF48073139313A9784B149316
:103168004FF090401594FEF757F8302313A9734891
:103178001393149615941694FEF74EF8224621469A
:103188000720FDF741FF0720FDF772FF2246214681
:103198000A20FDF739FF0A20FDF76AFF224621467B
:1031A8001720FDF731FF1720FDF762FF6B693343E6
:1031B8006B616B6933402246214638460193019B77
:1031C800FDF722FF3846FDF753FF2246214611201E
:1031D800FDF71AFF1120FDF74BFF5A485A4B846040
:1031E8004FF4E13580E828004FF400334FF00C0924
:1031F800032783624FF48033C4600461C0F81490DD
:103208008461C46104624762C362FFF7CCFB00B10A
:10321800FEE74E4C16904FF0804323606060A0603C
:103228004FF6FF732061A0614FF004081A9013A9AC
:103238002046E3601397CDF850A01596CDF85C8032
:10324800CDF860A01996CDF86C80FEF7E5FE25460E
:1032580000B1FEE70C900E900CA92046FFF7C8F9C4
:1032680000B1FEE73A4B3B4A1861602458621846A1
:1032780083E81400C3F80C90FEF79AF800B1FEE753
:10328800354C364B6060A0602061E061606220636D
:10329800E0606063A061A06320462360E662266266
:1032A800C4F81480FDF726FC00B1FEE716901590CF
:1032B8001790189013A9204613971496FDF712FD3E
:1032C80000B1FEE7264C2749A0600A2384E80A00DB
:1032D8002061FF236061A0612046E360FEF768FE7D
:1032E800264600B1FEE71EA94FF4805341F8583D29
:1032F8002046FEF7D3FF00B1FEE72046FEF772FE38
:1033080000B1FEE705900690079005A92046FFF753
:103318006FF900B1FEE760230C937F230D93082219
:1033280000230CA90E480E930F9310931193129338
:10333800FFF7D6F8D0B1FEE70010024000040048BD
:10334800000011103806002000440040F805002055
:103358006C0400203C000140A00400200001005043
:1033680044050020002C0140000021104FF40053B8
:1033780013901490159016901790189319901A900E
:103388004FF000731C901D9013A91C481B93FFF766
:1033980051F9074600B1FEE71848194C00F00AF940
:1033A800184AA760012384E80C00204648F69F438A
:1033B800E360A761FEF7FCFD00B1FEE713901590EE
:1033C80013A92046FFF714F900B1FEE70E480823B9
:1033D80083600E4BC3640E4B446003650D4C0E4B6B
:1033E8000660C4608362FFF718FC00B1FEE75E2345
:1033F80020462560E380FFF7D5FDFEE74405002061
:10340800A80600200014004084050020CDCCCC3D47
:103418006F12833A380500200AD7A33DFEE7000063
:10342800214B07B59A6942F001029A619A6902F044
:1034380001020092009ADA6942F08052DA61DB698F
:1034480003F0805301930320019BFDF7CBFD00227D
:1034580011466FF00B00FDF7D7FD002211466FF003
:103468000A00FDF7D1FD002211466FF00900FDF7B3
:10347800CBFD002211466FF00400FDF7C5FD0022C8
:1034880011466FF00300FDF7BFFD002211466FF0F3
:103498000100FDF7B9FD002211464FF0FF30FDF79E
:1034A800B3FD03B05DF804FB001002400268084B4E
:1034B8009A4282B009D1074B5A6942F080525A6148
:1034C8005B6903F080530193019B02B0704700BF12
:1034D80000010050001002407FB50268084B9A4274
:1034E8000AD1C02301930323029301A900234FF0BB
:1034F80090400393FDF790FE07B05DF804FB00BF12
:103508003C00014007B50368124A93420CD1124BA4
:103518009A6942F400629A619B6903F4006300931C
:10352800009B03B05DF804FB0C4A9342F9D10A4BA7
:10353800DA6942F02002DA61DB69002203F0200335
:10354800019311463720019BFDF75EFD3720FDF7FB
:103558008FFDE6E7002C01400010024000140040F7
:1035680010B50368B3F1804F86B020D103F504335A
:103578000024DA6942F00102DA61DB69039403F09E
:1035880001030093009B04940323019302230293F5
:1035980001A901234FF090400593FDF73DFE1C2043
:1035A80022462146FDF730FD1C20FDF761FD06B0DF
:1035B80010BD000070B502680F4B9A4286B018D152
:1035C800002401230226062501A90C48019302962E
:1035D800039404940595FDF71FFE4FF4806301A939
:1035E8004FF0904001930296039404940595FDF7DB
:1035F80013FE06B070BD00BF002C01400014004847
:1036080070B502682B4B9A4286B006464FD103F537
:10361800E6330025DA69284C42F40032DA61DB69C6
:10362800039503F400330093009B0C2301930223BA
:1036380002930323049301A907234FF090400593B5
:10364800FDF7EAFD1D49A560102384E80A0020461D
:103658008023E36025616561A561E561FDF73CFDB7
:1036680020B140F267111648FFF7D8FE346666624B
:10367800144C154B23608022002320466360A3600E
:10368800E26023616361A361E361FDF725FD20B179
:1036980040F277110A48FFF7C1FE0022262074661F
:1036A80011466662FDF7B0FC2620FDF7E1FC06B086
:1036B80070BD00BF00440040F404002080000240B8
:1036C80028390008280400206C00024008B5FDF7DE
:1036D800C7F9BDE80840FDF7FABC0220FDF75CBE5B
:1036E8001020FDF759BE00000148FDF74DBD00BF91
:1036F800280400200148FDF747BD00BFF40400205E
:103708004FF48070FDF748BE0148FEF756BB00BF76
:10371800F80500200148FFF7E9B900BF3806002086
:103728000148FEF74ABB00BFA8060020034B8342AE
:1037380002D10348FFF710BB704700BFA80600205E
:1037480084050020102807D10C4890F87130012B0F
:1037580012D10221FFF780BA022807D1074890F852
:103768007130012B08D10821FFF7C6BAB0F5807F68
:1037780002D10348FFF738BC704700BF840500201A
:10378800380500201549D1F8883043F47003C1F892
:103798008830134B1A6842F001021A605868114ABF
:1037A80002405A601A6822F0847222F480321A6049
:1037B8001A6822F480221A605A6822F4FE025A60BB
:1037C800DA6A22F00F02DA62186B074A02401A63BB
:1037D80000229A604FF000638B60704700ED00E0B4
:1037E800001002400CC07FF8CCFC00FFDFF834D09A
:1037F800002103E00C4B5B58435004310B480C4B41
:1038080042189A42F6D30B4A02E0002342F8043BDE
:10381800094B9A42F9D3FFF7B5FF00F037F8FFF7E5
:1038280041FCFEE700300020643900080000002059
:103838000804002008040020E8060020FEE7000035
:10384800D0ED086AD0ED067A90ED077AC0ED026AED
:1038580037EE877A36EEA66AF1EE677A37EE267A81
:1038680077EEC67A80ED007AC0ED017A61B1002367
:10387800037343738373C373037443748374C3748C
:10388800037543758375C375704700BF70B50D4EDA
:103898000D4CA41BA4100025A54209D10B4E0C4CBD
:1038A80000F020F8A41BA4100025A54205D170BD86
:1038B80056F8253098470135EEE756F825309847F1
:1038C8000135F2E75C3900085C3900085C3900080A
:1038D8006039000802440346934200D1704703F858
:1038E800011BF9E7F8B500BFF8BC08BC9E46704755
:0C38F800F8B500BFF8BC08BC9E46704745
:1039040002030405060708090A0B0C0D0E0F10101C
:103914000102030405060708090A0B0C0D0E0F101B
:10392400000408022E2E5C5372635C73746D333290
:10393400663378785F68616C5F6D73702E63000026
:10394400000000000000000102030406070809004B
:08395400000000010203040061
:04395C00AD010008B1
:0439600089010008D1
:1039640001000000100000004E6280BF70EB7EBFBB
:1039740045127DBF19397BBFEE5F79BFC28677BF21
:1039840097AD75BF6BD473BF40FB71BF6C2170BF23
:1039940041486EBF156F6CBFEA956ABFBEBC68BF75
:1039A40093E366BF670A65BF3C3163BF105861BFCC
:1039B400E57E5FBFB9A55DBFE6CB5BBFBBF259BF78
:1039C4008F1958BF644056BF386754BF0D8E52BF1D
:1039D400E1B450BFB6DB4EBF8A024DBF5F294BBF77
:1039E4008B4F49BF607647BF349D45BF09C443BF71
:1039F400DDEA41BFB21140BF86383EBF5B5F3CBFCA
:103A04002F863ABF04AD38BF31D336BF05FA34BF71
:103A1400DA2033BFAE4731BF836E2FBF57952DBF1A
:103A24002CBC2BBF00E329BFD50928BFA93026BF72
:103A3400D65624BFAA7D22BF7FA420BF53CB1EBF6E
:103A440028F21CBFFC181BBFD13F19BFA56617BFC6
:103A54007A8D15BF4EB413BF7BDA11BF500110BF6E
:103A640024280EBFF94E0CBFCD750ABFA29C08BF17
:103A740076C306BF4BEA04BF1F1103BFF43701BF6F
:103A840041BCFEBEEA09FBBE9357F7BE3CA5F3BE9C
:103A9400E5F2EFBE8E40ECBE378EE8BEE0DBE4BE5E
:103AA4008929E1BE3277DDBE8BC3D9BE3411D6BEBF
:103AB400DD5ED2BE86ACCEBE2FFACABED847C7BE24
:103AC4008195C3BE2AE3BFBED330BCBE7C7EB8BEE4
:103AD40025CCB4BE7E18B1BE2766ADBED0B3A9BE98
:103AE4007901A6BE224FA2BECB9C9EBE74EA9ABEAA
:103AF4001D3897BEC68593BE6FD38FBEC91F8CBEBB
:103B0400726D88BE1BBB84BEC40881BEDAAC7ABEAB
:103B14002C4873BE7EE36BBED07E64BE221A5DBEAB
:103B240074B555BE274E4EBE79E946BECB843FBE22
:103B34001D2038BE6FBB30BEC15629BE13F221BE54
:103B4400658D1ABEB72813BE09C40BBEBC5C04BE87
:103B54001CF0F9BDC026EBBD645DDCBD0894CDBD91
:103B6400ACCABEBD00000000ACCABE3D0894CD3D49
:103B7400645DDC3DC026EB3D1CF0F93DBC5C043EBD
:103B840009C40B3EB728133E658D1A3E13F2213E3D
:103B9400C156293E6FBB303E1D20383ECB843F3E8C
:103BA40079E9463E274E4E3E74B5553E221A5D3E97
:103BB400D07E643E7EE36B3E2C48733EDAAC7A3EA4
:103BC400C408813E1BBB843E726D883EC91F8C3E77
:103BD4006FD38F3EC685933E1D38973E74EA9A3E56
:103BE400CB9C9E3E224FA23E7901A63ED0B3A93E75
:103BF4002766AD3E7E18B13E25CCB43E7C7EB83EF1
:103C0400D330BC3E2AE3BF3E8195C33ED847C73E6E
:103C14002FFACA3E86ACCE3EDD5ED23E3411D63E8D
:103C24008BC3D93E3277DD3E8929E13EE0DBE43EB9
:103C3400378EE83E8E40EC3EE5F2EF3E3CA5F33E87
:103C44009357F73EEA09FB3E41BCFE3EF437013F81
:103C54001F11033F4BEA043F76C3063FA29C083F73
:103C6400CD750A3FF94E0C3F24280E3F5001103FFA
:103C74007BDA113F4EB4133F7A8D153FA566173F8B
:103C8400D13F193FFC181B3F28F21C3F53CB1E3F6A
:103C94007FA4203FAA7D223FD656243FA930263F49
:103CA400D509283F00E3293F2CBC2B3F57952D3FD6
:103CB400836E2F3FAE47313FDA20333F05FA343F5E
:103CC40031D3363F04AD383F2F863A3F5B5F3C3FEC
:103CD40086383E3FB211403FDDEA413F09C4433FCD
:103CE400349D453F6076473F8B4F493F5F294B3FAB
:103CF4008A024D3FB6DB4E3FE1B4503F0D8E523F3A
:103D04003867543F6440563F8F19583FBBF2593FC0
:103D1400E6CB5B3FB9A55D3FE57E5F3F1058613F51
:103D24003C31633F670A653F93E3663FBEBC683F2F
:103D3400EA956A3F156F6C3F41486E3F6C21703FB6
:103D440040FB713F6BD4733F97AD753FC286773F9D
:103D5400EE5F793F19397B3F45127D3F70EB7E3F23
:083D64004E62803F00127A005C
:04000005080037F5C3
:00000001FF
